:100000000C9434000C943E000C943E000C943E0082
:100010000C943E000C943E000C943E000C943E0068
:100020000C943E000C943E000C943E000C943E0058
:100030000C943E000C943E000C943E000C943E0048
:100040000C943E000C943E000C943E000C943E0038
:100050000C943E000C943E000C943E000C943E0028
:100060000C943E000C943E0011241FBECFEFD8E04C
:10007000DEBFCDBF0E9449000C9452000C940000DA
:1000800042E320E030E0C9010197F1F74150D9F790
:10009000089580E284B92D9A0E9440002D980E9414
:0800A0004000F9CFF894FFCFF6
:00000001FF
