:100000000C9434000C9449000C9449000C94490061
:100010000C9449000C9449000C9449000C9449003C
:100020000C9449000C9449000C9449000C9449002C
:100030000C9449000C9449000C9449000C9449001C
:100040000C9449000C9449000C9449000C9449000C
:100050000C9449000C9449000C9449000C944900FC
:100060000C9449000C94490011241FBECFEFD8E036
:10007000DEBFCDBF12E0A0E0B1E0ECE0F4E002C0F2
:1000800005900D92A239B107D9F70E9483010C9413
:1000900004020C94000080E28093B800ECEBF0E0E6
:1000A00080818460808308958091BC0087FFFCCFAD
:1000B000089584EA8093BC000C94540084E98093F2
:1000C000BC00089584EC8093BC000E945400809191
:1000D000BB00089584E88093BC000E945400809186
:1000E000BB0008958093BB0084E88093BC000C940F
:1000F00054001092C50087E68093C400E0ECF0E065
:1001000080818D7F808388E18093C10086E0809329
:10011000C20008959091C00095FFFCCF8093C60067
:1001200008958091C00087FFFCCF8091C60008959C
:100130001F93CF93DF93EC0110E0FE01E10FF11D5F
:100140008081882321F00E948A001F5FF6CFDF9113
:10015000CF911F910895CF92DF92EF92FF920F936C
:100160001F93CF93DF937C01D12C062F10E0015019
:100170001109CD2DD0E0C017D10744F40E949100A1
:10018000C82E0E948A008DE0C8120CC0CE0DDF1D63
:100190001882DF91CF911F910F91FF90EF90DF9028
:1001A000CF900895CE0DDF1DC882D394E2CFCF93B8
:1001B000C82F64E60E94E401805D0E948A002AE064
:1001C0008C2F622F0E94E401C92F0E94E40180E37A
:1001D000890F0E948A0080E38C0FCF910C948A00D3
:1001E0000F931F93CF93DF93EC0160E177E20E94BE
:1001F000F00180E3860F0E948A00CE0168EE73E072
:100200000E94F001CB010AE010E0B8010E94F00169
:10021000805D0E948A00CE0164E670E00E94F001D9
:10022000CB01B8010E94F001805D0E948A00CE01DE
:10023000B8010E94F001C82FCB01B8010E94F00163
:10024000805D0E948A0080E38C0FDF91CF911F9127
:100250000F910C948A001F93CF93DF931F92CDB719
:10026000DEB7898317E0898190E0012E02C0959561
:1002700087950A94E2F780FF02C081E301C080E322
:100280000E948A00115078F70F90DF91CF911F9153
:1002900008958A3010F4805D0895895C0895CF93A5
:1002A000C82F82958F700E9449010E948A008C2F6E
:1002B0008F700E944901CF910C948A000F931F9375
:1002C000CF93DF93D0E3C0E300E30E949100182FA7
:1002D0000E948A001D3021F00C2FCD2FD12FF5CF99
:1002E000D053005384E6089FD00D11249C2F990F02
:1002F0009056892F880F880F890F8D0FDF91CF912E
:100300001F910F91089580E090E020E80FB6F894D7
:1003100020936100809361000FBE0E9479000E94CB
:100320004B0080E091E00E9498008AE291E00E94F8
:1003300098008BE00E94D7000E9459008CE391E066
:100340000E94980080EA0E9472008DE691E00E946F
:10035000980081E00E94720086E991E00E94980076
:1003600083E00E94720080EC91E00E9498008BE094
:100370000E9472008BED91E00E9498000E945E0046
:100380000E9459008AEF91E00E94980085E192E076
:100390000E94980081EA0E94720085E492E00E9427
:1003A00098000E946200C82F0E946A000E945E00AE
:1003B0008CE692E00E9498008FE792E00E949800FD
:1003C0008C2F0E94D700FFCF991B79E004C0991FA2
:1003D000961708F0961B881F7A95C9F7809508959F
:1003E000AA1BBB1B51E107C0AA1FBB1FA617B7075B
:1003F00010F0A61BB70B881F991F5A95A9F7809577
:0C0400009095BC01CD010895F894FFCF49
:10040C000D0A202D2D2D2057652772652075702023
:10041C00616E642072756E6E696E672C206261620B
:10042C007921202D2D2D200D0A000D0A202D2D2D8A
:10043C002044617461202D2D2D3A20000D0A202DB1
:10044C002D2D2053656E64696E6720454550524FC3
:10045C004D2041646472657373202B20577269744C
:10046C006520426974202D2D2D200D0A000D0A20C7
:10047C002D2D2D2053656E64696E6720466972734D
:10048C007420576F72642041646472657373202DFD
:10049C002D2D200D0A000D0A202D2D2D2053656EBB
:1004AC0064696E67205365636F6E6420576F726466
:1004BC002041646472657373202D2D2D200D0A006C
:1004CC000D0A202D2D2D2053656E64696E67204416
:1004DC00617461202D2D2D200D0A000D0A202D2D6B
:1004EC002D2053656E64696E672053746F702042C3
:1004FC006974202D2D2D200D0A000D0A202D2D2D77
:10050C0020537461727465642052656164202D2DD2
:10051C002D200D0A000D0A202D2D2D2053656E6403
:10052C00696E6720454550524F4D20416464726599
:10053C007373202B205265616420426974202D2D29
:10054C002D200D0A000D0A202D2D2D2053746F72B5
:10055C0065204869676820616E64204C6F77204283
:10056C0079746573202D2D2D200D0A000D0A202D78
:10057C002D2D20446F6E65202D2D2D200D0A000D84
:10058C000A202D2D2D2048696768204279653A2074
:02059C0000005D
:00000001FF
