:100000000C9434000C943E000C943E000C943E0082
:100010000C943E000C943E000C943E000C943E0068
:100020000C943E000C943E000C943E000C943E0058
:100030000C943E000C943E000C943E000C943E0048
:100040000C943E000C943E000C943E000C943E0038
:100050000C943E000C943E000C943E000C943E0028
:100060000C943E000C943E0011241FBECFEFD8E04C
:10007000DEBFCDBF0E9440000C9451000C940000E4
:1000800080E284B920E225B980EA96E8A1E0B0E0F8
:100090000197A109B1090097A105B105C9F715B8E4
:0600A000F2CFF894FFCF3F
:00000001FF
