:100000000C9434000C943E000C943E000C943E0082
:100010000C943E000C943E000C943E000C943E0068
:100020000C943E000C943E000C943E000C943E0058
:100030000C943E000C943E000C943E000C943E0048
:100040000C943E000C943E000C943E000C943E0038
:100050000C943E000C943E000C943E000C943E0028
:100060000C943E000C943E0011241FBECFEFD8E04C
:10007000DEBFCDBF0E9440000C9458000C940000DD
:100080005398259A89B12D9A2FEF83ED90E3215053
:1000900080409040E1F700C000002D982FEF83EDE5
:1000A00090E3215080409040E1F700C00000EACF8B
:0400B000F894FFCFF2
:00000001FF
