:100000000C9434000C943E000C943E000C943E0082
:100010000C943E000C943E000C943E000C943E0068
:100020000C943E000C943E000C943E000C943E0058
:100030000C943E000C943E000C943E000C943E0048
:100040000C943E000C943E000C943E000C943E0038
:100050000C943E000C943E000C943E000C943E0028
:100060000C943E000C943E0011241FBECFEFD8E04C
:10007000DEBFCDBF0E9440000C946B000C940000CA
:100080008FEF84B981E090E0453090F49C01042E1C
:1000900001C0220F0A94EAF725B92FE736E254E0AF
:1000A000215030405040E1F700C000004F5FECCFDE
:1000B0009C01042E01C0220F0A94EAF725B92FE70C
:1000C00036E254E0215030405040E1F700C00000DB
:0A00D000415071F7DBCFF894FFCF29
:00000001FF
