:100000000C9434000C943E000C943E000C943E0082
:100010000C943E000C943E000C943E000C943E0068
:100020000C943E000C943E000C943E000C943E0058
:100030000C943E000C943E000C943E000C943E0048
:100040000C943E000C943E000C943E000C943E0038
:100050000C943E000C943E000C943E000C943E0028
:100060000C943E000C943E0011241FBECFEFD8E04C
:10007000DEBFCDBF0E9440000C946D000C940000C8
:100080008FEF84B981E090E0453098F49C01042E14
:1000900001C0220F0A94EAF7209525B92FE736E22E
:1000A00054E0215030405040E1F700C000004F5F65
:1000B000EBCF9C01042E01C0220F0A94EAF7209591
:1000C00025B92FE736E254E0215030405040E1F7A7
:0E00D00000C00000415069F7D9CFF894FFCF6F
:00000001FF
