:100000000C9434000C9449000C9449000C94490061
:100010000C9449000C9449000C9449000C9449003C
:100020000C9449000C9449000C9449000C9449002C
:100030000C9449000C9449000C9449000C9449001C
:100040000C9449000C9449000C9449000C9449000C
:100050000C9449000C9449000C9449000C944900FC
:100060000C9449000C94490011241FBECFEFD8E036
:10007000DEBFCDBF11E0A0E0B1E0E4E7F3E002C0F5
:1000800005900D92A430B107D9F70E947E010C941F
:10009000B8010C940000ECE7F0E08081806480837C
:1000A000808180628083EAE7F0E0808180688083DD
:1000B00080818760808380818064808308959091AF
:1000C0007C008770987F892B80937C0080917A00D8
:1000D000806480937A0080917A0086FDFCCF8091C5
:1000E00078009091790008951092C50087E680937A
:1000F000C400E0ECF0E080818D7F808388E1809314
:10010000C10086E08093C20008959091C00095FFE1
:10011000FCCF8093C60008958091C00087FFFCCF7C
:100120008091C60008951F93CF93DF93EC0110E0F8
:10013000FE01E10FF11D8081882321F00E948500DE
:100140001F5FF6CFDF91CF911F910895CF92DF927D
:10015000EF92FF920F931F93CF93DF937C01D12CEB
:10016000062F10E001501109CD2DD0E0C017D107A6
:1001700044F40E948C00C82E0E9485008DE0C812B5
:100180000CC0CE0DDF1D1882DF91CF911F910F9112
:10019000FF90EF90DF90CF900895CE0DDF1DC882C5
:1001A000D394E2CFCF93C82F64E60E949801805D7C
:1001B0000E9485002AE08C2F622F0E949801C92F8F
:1001C0000E94980180E3890F0E94850080E38C0FD4
:1001D000CF910C9485000F931F93CF93DF93EC0185
:1001E00060E177E20E94A40180E3860F0E9485000F
:1001F000CE0168EE73E00E94A401CB010AE010E09A
:10020000B8010E94A401805D0E948500CE0164E6D1
:1002100070E00E94A401CB01B8010E94A401805D9E
:100220000E948500CE01B8010E94A401C82FCB0115
:10023000B8010E94A401805D0E94850080E38C0FBC
:10024000DF91CF911F910F910C9485001F93CF9355
:10025000DF931F92CDB7DEB7898317E0898190E0E5
:10026000012E02C0959587950A94E2F780FF02C09F
:1002700081E301C080E30E948500115078F70F9060
:10028000DF91CF911F9108958A3010F4805D089519
:10029000895C0895CF93C82F82958F700E94440186
:1002A0000E9485008C2F8F700E944401CF910C9486
:1002B00085000F931F93CF93DF93D0E3C0E300E358
:1002C0000E948C00182F0E9485001D3021F00C2FF9
:1002D000CD2FD12FF5CFD053005384E6089FD00DFA
:1002E00011249C2F990F9056892F880F880F890F02
:1002F0008D0FDF91CF911F910F91089581E084B907
:100300000E9474000E944B0081E00E945F00EC019B
:10031000C03C8DE5D80718F481E085B901C0289864
:1003200080E091E00E949300CE010E94EB00ECCFB0
:10033000991B79E004C0991F961708F0961B881F37
:100340007A95C9F780950895AA1BBB1B51E107C098
:10035000AA1FBB1FA617B70710F0A61BB70B881F55
:10036000991F5A95A9F780959095BC01CD010895E4
:04037000F894FFCF2F
:04037400202D200018
:00000001FF
