:100000000C9434000C9449000C9449000C94490061
:100010000C9449000C9449000C9449000C9449003C
:100020000C9449000C9449000C9449000C9449002C
:100030000C9449000C9449000C9449000C9449001C
:100040000C9449000C9449000C9449000C9449000C
:100050000C9449000C9449000C9449000C944900FC
:100060000C9449000C94490011241FBECFEFD8E036
:10007000DEBFCDBF11E0A0E0B1E0ECE0F3E002C0F4
:1000800005900D92A031B107D9F70E9455010C944B
:1000900084010C9400001092C50087E68093C40090
:1000A000E0ECF0E080818D7F808388E18093C10067
:1000B00086E08093C20008959091C00095FFFCCF28
:1000C0008093C60008958091C00087FFFCCF809187
:1000D000C60008951F93CF93DF93EC0110E0FE015B
:1000E000E10FF11D8081882321F00E945C001F5FD9
:1000F000F6CFDF91CF911F910895CF92DF92EF92CB
:10010000FF920F931F93CF93DF937C01D12C062F87
:1001100010E001501109CD2DD0E0C017D10744F4F3
:100120000E946300C82E0E945C008DE0C8120CC0C3
:10013000CE0DDF1D1882DF91CF911F910F91FF909F
:10014000EF90DF90CF900895CE0DDF1DC882D3943D
:10015000E2CFCF93C82F64E60E946401805D0E94C5
:100160005C002AE08C2F622F0E946401C92F0E943C
:10017000640180E3890F0E945C0080E38C0FCF91C3
:100180000C945C000F931F93CF93DF93EC0160E11D
:1001900077E20E94700180E3860F0E945C00CE012E
:1001A00068EE73E00E947001CB010AE010E0B80134
:1001B0000E947001805D0E945C00CE0164E670E0E8
:1001C0000E947001CB01B8010E947001805D0E9405
:1001D0005C00CE01B8010E947001C82FCB01B801AC
:1001E0000E947001805D0E945C0080E38C0FDF91B3
:1001F000CF911F910F910C945C001F93CF93DF93CD
:100200001F92CDB7DEB7898317E0898190E0012E78
:1002100002C0959587950A94E2F780FF02C081E3BA
:1002200001C080E30E945C00115078F70F90DF91CD
:10023000CF911F9108958A3010F4805D0895895CF4
:100240000895CF93C82F82958F700E941B010E9442
:100250005C008C2F8F700E941B01CF910C945C006E
:100260000F931F93CF93DF93D0E3C0E300E30E948B
:100270006300182F0E945C001D3021F00C2FCD2F41
:10028000D12FF5CFD053005384E6089FD00D112411
:100290009C2F990F9056892F880F880F890F8D0FEB
:1002A000DF91CF911F910F9108958FEF84B90E9434
:1002B0004B0080E091E00E946A000E946300C82F1A
:1002C0000E945C00C5B9F9CF991B79E004C0991F61
:1002D000961708F0961B881F7A95C9F780950895A0
:1002E000AA1BBB1B51E107C0AA1FBB1FA617B7075C
:1002F00010F0A61BB70B881F991F5A95A9F7809578
:0C0300009095BC01CD010895F894FFCF4A
:10030C0048656C6C6F20576F726C64210D0A00008D
:00000001FF
