:100000000C9434000C9446000C9446000C9446006A
:100010000C9446000C9446000C9446000C94460048
:100020000C9446000C9446000C9446000C94460038
:100030000C9446000C9446000C9446000C94460028
:100040000C9446000C9446000C9446000C94460018
:100050000C9446000C9446000C9446000C94460008
:100060000C9446000C94460011241FBECFEFD8E03C
:10007000DEBFCDBF21E0A0E0B1E001C01D92A43001
:10008000B207E1F70E94B7010C9407020C9400003C
:10009000219AE0E8F0E08081826C8083E1E8F0E082
:1000A00080818A618083E6E8F0E08FE39CE99183B8
:1000B000808380819181805D9740909389008093B7
:1000C0008800089580EA9FE09093010180930001E9
:1000D0008EE090E0909303018093020180910201F1
:1000E00090910301181619061CF52091000130911A
:1000F0000101285C310930930101209300018091B6
:10010000860090918700821B930B909389008093C7
:1001100088002FEF80E792E0215080409040E1F787
:1001200000C0000080910201909103010197D2CF9D
:10013000089580E293E090930101809300018EE0A6
:1001400090E09093030180930201809102019091CD
:100150000301181619061CF52091000130910101C8
:1001600028533F4F30930101209300018091860076
:1001700090918700821B930B909389008093880055
:100180002FEF80E792E0215080409040E1F700C0DF
:10019000000080910201909103010197D2CF089550
:1001A00080EA9FE0909301018093000188E090E055
:1001B00090930301809302018091020190910301C9
:1001C000181619061CF52091000130910101285CD8
:1001D00031093093010120930001809186009091B4
:1001E0008700821B930B90938900809388002FEFE8
:1001F00080E792E0215080409040E1F700C000008D
:1002000080910201909103010197D2CF089580E27D
:1002100093E0909301018093000188E090E0909337
:10022000030180930201809102019091030118164D
:1002300019061CF5209100013091010128533F4F10
:1002400030930101209300018091860090918700F6
:10025000821B930B90938900809388002FEF80E797
:1002600092E0215080409040E1F700C00000809172
:100270000201909103010197D2CF089580EA9FE097
:1002800090930101809300018FE090E0909303012F
:1002900080930201809102019091030118161906C2
:1002A0001CF52091000130910101285C3109309347
:1002B0000101209300018091860090918700821BAC
:1002C000930B90938900809388002FEF89E698E143
:1002D000215080409040E1F700C000008091020171
:1002E000909103010197D2CF089580E293E090931B
:1002F0000101809300018FE090E0909303018093CF
:1003000002018091020190910301181619061CF553
:10031000209100013091010128533F4F309301019A
:10032000209300018091860090918700821B930B9F
:1003300090938900809388002FEF89E698E12150FF
:1003400080409040E1F700C0000080910201909150
:1003500003010197D2CF0895809186009091870084
:1003600080569940909389008093880008950E9458
:1003700048000E9462002FEF8EE994E221508040F5
:100380009040E1F700C000000E9499002FEF8EE935
:1003900094E2215080409040E1F700C000000E94AC
:1003A000D0002FEF8EE994E2215080409040E1F799
:1003B00000C000000E9407012FEF8EE994E2215057
:1003C00080409040E1F700C000000E943E012FEF06
:1003D0008EE994E2215080409040E1F700C0000097
:1003E0000E9475012FEF8EE994E2215080409040E9
:1003F000E1F700C000000E94AC012FEF8EE994E20B
:10040000215080409040E1F700C00000B2CFF89446
:02041000FFCF1C
:00000001FF
