:100000000C9434000C943E000C943E000C943E0082
:100010000C943E000C943E000C943E000C943E0068
:100020000C943E000C943E000C943E000C943E0058
:100030000C943E000C943E000C943E000C943E0048
:100040000C943E000C943E000C943E000C943E0038
:100050000C943E000C943E000C943E000C943E0028
:100060000C943E000C943E0011241FBECFEFD8E04C
:10007000DEBFCDBF0E9440000C9497000C9400009E
:1000800084B18FEF84B980918000826C809380006E
:10009000809181008A61809381008FE39CE9909335
:1000A0008700809386008091860090918700805D14
:1000B0009740909389008093880020EA3FE08EE08B
:1000C00090E018161906BCF4285C310940918600AE
:1000D00050918700421B530B509389004093880036
:1000E0004FEF50E762E0415050406040E1F700C000
:1000F00000000197E6CF80E293E088539F4F209164
:10010000860030918700281B390B3093890020939B
:1001100088002FEF30E742E0215030404040E1F7C7
:1001200000C0000080315EE0950739F7C6CFF89433
:02013000FFCFFF
:00000001FF
