:100000000C9434000C9449000C9449000C94490061
:100010000C9449000C9449000C9449000C9449003C
:100020000C9449000C9449000C9449000C9449002C
:100030000C9449000C9449000C9449000C9449001C
:100040000C9449000C9449000C9449000C9449000C
:100050000C9449000C9449000C9449000C944900FC
:100060000C9449000C94490011241FBECFEFD8E036
:10007000DEBFCDBF11E0A0E0B1E0E2EAF4E002C0F3
:1000800005900D92A039B107D9F70E9455010C9443
:100090004F020C9400001092C50087E68093C400C4
:1000A000E0ECF0E080818D7F808388E18093C10067
:1000B00086E08093C20008959091C00095FFFCCF28
:1000C0008093C60008958091C00087FFFCCF809187
:1000D000C60008951F93CF93DF93EC0110E0FE015B
:1000E000E10FF11D8081882321F00E945C001F5FD9
:1000F000F6CFDF91CF911F910895CF92DF92EF92CB
:10010000FF920F931F93CF93DF937C01D12C062F87
:1001100010E001501109CD2DD0E0C017D10744F4F3
:100120000E946300C82E0E945C008DE0C8120CC0C3
:10013000CE0DDF1D1882DF91CF911F910F91FF909F
:10014000EF90DF90CF900895CE0DDF1DC882D3943D
:10015000E2CFCF93C82F64E60E942F02805D0E94F9
:100160005C002AE08C2F622F0E942F02C92F0E9470
:100170002F0280E3890F0E945C0080E38C0FCF91F7
:100180000C945C000F931F93CF93DF93EC0160E11D
:1001900077E20E943B0280E3860F0E945C00CE0162
:1001A00068EE73E00E943B02CB010AE010E0B80168
:1001B0000E943B02805D0E945C00CE0164E670E01C
:1001C0000E943B02CB01B8010E943B02805D0E946D
:1001D0005C00CE01B8010E943B02C82FCB01B801E0
:1001E0000E943B02805D0E945C0080E38C0FDF91E7
:1001F000CF911F910F910C945C001F93CF93DF93CD
:100200001F92CDB7DEB7898317E0898190E0012E78
:1002100002C0959587950A94E2F780FF02C081E3BA
:1002200001C080E30E945C00115078F70F90DF91CD
:10023000CF911F9108958A3010F4805D0895895CF4
:100240000895CF93C82F82958F700E941B010E9442
:100250005C008C2F8F700E941B01CF910C945C006E
:100260000F931F93CF93DF93D0E3C0E300E30E948B
:100270006300182F0E945C001D3021F00C2FCD2F41
:10028000D12FF5CFD053005384E6089FD00D112411
:100290009C2F990F9056892F880F880F890F8D0FEB
:1002A000DF91CF911F910F910895CCEFD8E0D093BB
:1002B0008900C093880080918000826080938000D4
:1002C00080918100886180938100809181008260AB
:1002D0008093810080E49CE990938700809386005E
:1002E00080918000806880938000219A0E944B005A
:1002F00080E091E00E946A008EE191E00E946A0035
:10030000D0938900C09388002FEF8DE399E42150AA
:1003100080409040E1F700C0000087E291E00E9439
:100320006A008EEE92E090938900809388002FEF10
:100330008DE399E4215080409040E1F700C0000037
:1003400087E391E00E946A0082E691E19093890040
:10035000809388002FEF8DE399E4215080409040F6
:10036000E1F700C000008EE191E00E946A008CEF8E
:1003700098E090938900809388002FEF8DE399E4B3
:10038000215080409040E1F700C0000008EE13E0EB
:1003900034E6E32E8FE491E00E946A0080E3F82EB9
:1003A00090E3D92E20E3C22ED0E30E946300C82F31
:1003B0000E945C00CD3029F0DC2DCD2CDF2CFC2EF2
:1003C000F4CF8AE00E945C004D2F552747FD5095E1
:1003D00040535109409FE001419FD00D509FD00DE7
:1003E00011242C2D332727FD309520533109E29E0F
:1003F000A001E39E500D1124C40FD51F8D2D992708
:1004000087FD9095C0974AE0489F9001499F300D25
:100410001124C20FD31FCF0DD11DF7FCDA95E09741
:10042000219A82E791E00E946A00D0938900C093EC
:1004300088002FEF83ED90E3215080409040E1F75A
:1004400000C0000081E891E00E946A008091840071
:1004500090918500883B9B40C8F321989BCF991BC6
:1004600079E004C0991F961708F0961B881F7A95AB
:10047000C9F780950895AA1BBB1B51E107C0AA1FAD
:10048000BB1FA617B70710F0A61BB70B881F991F35
:100490005A95A9F780959095BC01CD010895F894DF
:0204A000FFCF8C
:1004A2000D0A57656C636F6D6520546F2054686543
:1004B20020536572766F2044656D6F0D0A004365A7
:1004C2006E7465720D0A004D617820436C6F636B28
:1004D20077697365720A004D617820436F756E7497
:1004E200657220436C6F636B776973650D0A004513
:1004F2006E746572206120666F7572206469676927
:10050200742070756C7365206C656E6774683A0D43
:100512000A004F6E206D79207761792E2E2E0D0AFA
:100522000052656C656173696E672E2E2E0D0A008E
:00000001FF
