:100000000C9434000C943E000C943E000C943E0082
:100010000C943E000C943E000C943E000C943E0068
:100020000C943E000C943E000C943E000C943E0058
:100030000C943E000C943E000C943E000C943E0048
:100040000C943E000C943E000C943E000C943E0038
:100050000C943E000C943E000C943E000C943E0028
:100060000C943E000C943E0011241FBECFEFD8E04C
:10007000DEBFCDBF0E9440000C9467000C940000CE
:10008000219A809180008168809380008091810016
:1000900089608093810031E020E0822F90E090938E
:1000A000890080938800332311F081E001C08FEF35
:1000B000280F2F3F21F0211103C031E001C030E0B3
:1000C0008FE39CE90197F1F700C00000E6CFF894B8
:0200D000FFCF60
:00000001FF
