:100000000C9434000C943E000C943E000C943E0082
:100010000C943E000C943E000C943E000C943E0068
:100020000C943E000C943E000C943E000C943E0058
:100030000C943E000C943E000C943E000C943E0048
:100040000C943E000C943E000C943E000C943E0038
:100050000C943E000C943E000C943E000C943E0028
:100060000C943E000C943E0011241FBECFEFD8E04C
:10007000DEBFCDBF0E944F000C9486000C940000A0
:1000800022E380E090E0FC013197F1F7FC01319729
:10009000F1F7FC013197F1F72150A9F7089580910C
:1000A0008000826A80938000809181008B618093C0
:1000B000810087E893E190938700809386008AB15E
:1000C00080638AB981E6C82ED12C9CE3E92EFF24F7
:1000D000F39409EA11E0C7E1D2E0D0928900C0921E
:1000E00088000E944000F0928900E09288000E94FF
:1000F000400010938900009388000E944000D09334
:100100008900C09388000E944000E7CFF894FFCF99
:00000001FF
