:100000000C9434000C943E000C943E000C943E0082
:100010000C943E000C943E000C943E000C943E0068
:100020000C943E000C943E000C943E000C943E0058
:100030000C943E000C943E000C943E000C943E0048
:100040000C943E000C943E000C943E000C943E0038
:100050000C943E000C943E000C943E000C943E0028
:100060000C943E000C943E0011241FBECFEFD8E04C
:10007000DEBFCDBF0E9440000C94A3000C94000092
:10008000569A84E085BD60E074E284EF90E020E061
:1000900030E0A9010E94810069017A01CA01B90119
:1000A00068547E4F8F4F9F4F20E733E040E050E091
:1000B0000E948100CFEFC20FC701B60160597C4F8B
:1000C0008F4F9F4F20EE36E040E050E00E948100CD
:1000D000215082E4C7BD84BD3FEF43EC99E031502D
:1000E00040409040E1F700C0000027BD84BD3FEFD5
:1000F00043EC99E0315040409040E1F700C00000EF
:10010000E9CFA1E21A2EAA1BBB1BFD010DC0AA1F3D
:10011000BB1FEE1FFF1FA217B307E407F50720F070
:10012000A21BB30BE40BF50B661F771F881F991FEB
:100130001A9469F760957095809590959B01AC0134
:0A014000BD01CF010895F894FFCF30
:00000001FF
