:100000000C9434000C943E000C943E000C943E0082
:100010000C943E000C943E000C943E000C943E0068
:100020000C943E000C943E000C943E000C943E0058
:100030000C943E000C943E000C943E000C943E0048
:100040000C943E000C943E000C943E000C943E0038
:100050000C943E000C943E000C943E000C943E0028
:100060000C943E000C943E0011241FBECFEFD8E04C
:10007000DEBFCDBF0E9440000C94EE000C94000047
:1000800083E090E020E80FB6F8942093610080931D
:1000900061000FBE8FEF84B944E352E181E090E04C
:1000A00065E078E020E030E0A5B1FC01022E01C05F
:1000B000EE0F0A94EAF7AE2BA5B9AFE7BCE2E3E096
:1000C000A150B040E040E1F700C000002F5F3F4F7B
:1000D0002630310549F720E030E0A5B1FC01022EC1
:1000E00001C0EE0F0A94EAF7E095EA23E5B9FFE7CD
:1000F000ACE2B3E0F150A040B040E1F700C0000036
:100100002F5F3F4F2630310541F7EFE7FEED2FE03F
:10011000E150F0402040E1F700C00000E5E0F5B11B
:100120009C010E2E01C0220F0A94EAF7F22BF5B9BA
:100130003FE7ACE2B3E03150A040B040E1F700C08F
:100140000000E15060F7E5E0F5B19C010E2E01C022
:10015000220F0A94EAF720952F2325B9FFE72CE216
:1001600033E0F15020403040E1F700C00000E150A2
:1001700058F7AFE7BEEDEFE0A150B040E040E1F747
:1001800000C00000EBE4469F9001479F300D569F52
:10019000300D1124A901475E594CF5B1252F277068
:1001A000DC0102C0AA0FBB1F2A95E2F7FA27F5B9B6
:1001B000BFE7FCE223E0B150F0402040E1F700C08F
:1001C0000000E15001F715B83FE7ACE2B3E0315071
:1001D000A040B040E1F700C0000064CFF894FFCF2A
:00000001FF
